S0160000437070436F757273655461736B322E73726563B5
S11300000C9434000C943E000C943E000C943E007E
S11300100C943E000C943E000C943E000C943E0064
S11300200C943E000C943E000C943E000C943E0054
S11300300C943E000C943E000C943E000C943E0044
S11300400C943E000C943E000C943E000C943E0034
S11300500C943E000C943E000C943E000C943E0024
S11300600C943E000C943E0011241FBECFEFD8E048
S1130070DEBFCDBF0E9443000C9449000C940000E5
S1130080509A599A08950E944000599BFECF589A5D
S1090090FCCFF894FFCF41
S9030000FC
