S0160000437070436F757273655461736B322E73726563B5
S11300000C9434000C943E000C943E000C943E007E
S11300100C943E000C943E000C943E000C943E0064
S11300200C943E000C943E000C943E000C943E0054
S11300300C943E000C943E000C943E000C943E0044
S11300400C943E000C943E000C943E000C943E0034
S11300500C943E000C943E000C943E000C943E0024
S11300600C943E000C943E0011241FBECFEFD8E048
S1130070DEBFCDBF0E945A000C948F000C94000088
S1130080509A8BB186608BB90895589A2FEF84E308
S11300909CE0215080409040E1F700C00000589857
S11300A02FEF84E39CE0215080409040E1F700C0B2
S11300B0000008950E944000C0E0D0E000E010E09D
S11300C049990DC00F5F1F4F499BFECF2FEF83EC63
S11300D099E0215080409040E1F700C000004A9927
S11300E011C080E090E04A990CC0EFE9FFE031973D
S11300F0F1F700C000000196803DF7E09F0799F7F3
S113010004C0E801209749F004C0C4E1D0E000E055
S113011010E00E9445002197D3CF5898D1CFF8948E
S1050120FFCF0B
S9030000FC
