:100000000C9434000C9451000C9451000C94510049
:100010000C9451000C9451000C9451000C9451001C
:100020000C9451000C9451000C9451000C9451000C
:100030000C9451000C9451000C9451000C945100FC
:100040000C9451000C9451000C9451000C945100EC
:100050000C9451000C9451000C9451000C945100DC
:100060000C9451000C94510011241FBECFEFD8E026
:10007000DEBFCDBF11E0A0E0B1E0ECE7F2E002C0EE
:1000800005900D92A030B107D9F721E0A0E0B1E0D2
:1000900001C01D92A530B207E1F70E940C010C943B
:1000A0003C010C9400008AB186608AB9089589B138
:1000B00081700895882321F08BB1682B6BB9089566
:1000C0008BB1609568236BB90895CF93C82F0E94B8
:1000D00057008111FCCF62E08C2F0E945A0064E02F
:1000E00081E00E945A000E9457008823E1F364E0F7
:1000F00080E00E945A00CF9108950E94650080918F
:1001000000018F5F80930001843028F081E00E941D
:100110006500109200010895CF9381E00E94650070
:10012000C5E080E00E946500C150D9F7109200013F
:10013000CF9108958F929F92AF92BF92CF92DF920C
:10014000EF92FF920F931F93CF93DF936B017C018C
:1001500080E00E947D0081E00E947D005701CFE099
:10016000D0E001E010E099249394812C98010C2EAA
:1001700002C0220F331F0A94E2F72A213B21892D66
:10018000232B09F4882D0E947D00219778F7CFE07A
:10019000D0E001E010E0BB24B394A12CA8010C2E08
:1001A00002C0440F551F0A94E2F7052E000C660B9F
:1001B000770B4C215D216E217F218B2D452B462B0A
:1001C000472B09F48A2D0E947D00219738F7DF9193
:1001D000CF911F910F91FF90EF90DF90CF90BF9044
:1001E000AF909F908F90089580E00E947D0080E006
:1001F0000E947D0008951092810010928500109257
:1002000084000895809185002091840090E0982FCB
:100210008827820F911D08950E9453000E948C0030
:1002200001E810E0C5E0F801C0830E9402018130BE
:100230009044C8F30E94F4006091010170910201A2
:1002400080910301909104010E949A000E94FB009A
:100250008091010190910201A0910301B0910401EC
:100260000196A11DB11D8093010190930201A093FD
:0C0270000301B0930401D7CFF894FFCF36
:00000001FF
