:100000000C9434000C9451000C9451000C94510049
:100010000C9451000C9451000C9451000C9451001C
:100020000C9451000C9451000C9451000C9451000C
:100030000C9451000C9451000C9451000C945100FC
:100040000C9451000C9451000C9451000C945100EC
:100050000C9451000C9451000C9451000C945100DC
:100060000C9451000C94510011241FBECFEFD8E026
:10007000DEBFCDBF11E0A0E0B1E0E2EDF1E002C0F3
:1000800005900D92A630B107D9F721E0A6E0B1E0C6
:1000900001C01D92A730B207E1F70E94DD000C9469
:1000A000E7000C9400008AB186608AB908958BB18C
:1000B00081700895882321F08BB1682B6BB9089566
:1000C0008BB168236BB90895CF93C82F0E94570056
:1000D0008111FCCF62E08C2F0E945A0064E081E025
:1000E0000E945A000E9457008823E1F364E080E0F8
:1000F0000E945A00CF9108950E94640080910601E9
:100100008F5F80930601853018F481E00E946400BF
:100110000895CF9381E00E946400C5E080E00E94D2
:100120006400C150D9F710920601CF910895DF9273
:10013000EF92FF920F931F93CF93DF93082F81E0ED
:100140000E947C0080E00E947C00C7E0D0E0EE24AA
:10015000E394F12C11E0D12CC7010C2E02C0880FC2
:10016000991F0A94E2F7902F9823812F09F48D2D7F
:100170000E947C00219780F7DF91CF911F910F9112
:10018000FF90EF90DF9008950F931F93CF93DF932D
:10019000662371F0EC016150062F10E00F5F1F4FD6
:1001A000080F191F89910E949700C017D107D1F736
:1001B000DF91CF911F910F9108950E9453000E94EB
:1001C000890066E080E091E00E94C400FFCFF894CF
:0201D000FFCF5F
:0601D20048616C6C6F0037
:00000001FF
