:100000000C9434000C9451000C9451000C94510049
:100010000C9451000C9451000C9451000C9451001C
:100020000C9451000C9451000C9451000C9451000C
:100030000C9451000C9451000C9451000C945100FC
:100040000C9451000C9451000C9451000C945100EC
:100050000C9451000C9451000C9451000C945100DC
:100060000C9451000C94510011241FBECFEFD8E026
:10007000DEBFCDBF11E0A0E0B1E0E8EDF1E002C0ED
:1000800005900D92A630B107D9F721E0A6E0B1E0C6
:1000900001C01D92A730B207E1F70E94E0000C9466
:1000A000EA000C9400008AB186608AB9089589B18B
:1000B00081700895882321F08BB1682B6BB9089566
:1000C0008BB1609568236BB90895CF93C82F0E94B8
:1000D00057008111FCCF62E08C2F0E945A0064E02F
:1000E00081E00E945A000E9457008823E1F364E0F7
:1000F00080E00E945A00CF9108950E94650080918F
:1001000006018F5F80930601843028F081E00E9411
:100110006500109206010895CF9381E00E9465006A
:10012000C5E080E00E946500C150D9F71092060139
:10013000CF910895DF92EF92FF920F931F93CF9389
:10014000DF93082F81E00E947D0080E00E947D0007
:10015000C7E0D0E0EE24E394F12C11E0D12CC701EC
:100160000C2E02C0880F991F0A94E2F7902F982353
:10017000812F09F48D2D0E947D00219780F7DF915A
:10018000CF911F910F91FF90EF90DF9008950F9303
:100190001F93CF93DF93662371F0EC016150062F1C
:1001A00010E00F5F1F4F080F191F89910E949A00DE
:1001B000C017D107D1F7DF91CF911F910F9108950B
:1001C0000E9453000E948C0066E080E091E00E9453
:0801D000C700FFCFF894FFCF38
:0601D80048616C6C6F0031
:00000001FF
