S0170000446973706C61795472616E736D69742E73726563E5
S11300000C9434000C9451000C9451000C94510045
S11300100C9451000C9451000C9451000C94510018
S11300200C9451000C9451000C9451000C94510008
S11300300C9451000C9451000C9451000C945100F8
S11300400C9451000C9451000C9451000C945100E8
S11300500C9451000C9451000C9451000C945100D8
S11300600C9451000C94510011241FBECFEFD8E022
S1130070DEBFCDBF11E0A0E0B1E0E2EBF1E002C0F1
S113008005900D92A630B107D9F721E0A6E0B1E0C2
S113009001C01D92A730B207E1F70E94CD000C9475
S11300A0D7000C9400008AB186608AB9089589B19A
S11300B081700895882319F08BB1682B03C08BB12C
S11300C0609568236BB90895CF93C82F0E94570099
S11300D08111FCCF62E08C2F0E945A005A9A0E9430
S11300E057008823E1F35A98CF9108950E94640041
S11300F0809106018F5F80930601843028F081E0AF
S11301000E946400109206010895CF9381E00E943A
S11301106400C5E080E00E946400C150D9F71092E9
S11301200601CF910895EF92FF921F93CF93DF932F
S1130130182F81E00E94760080E00E947600C7E0DC
S1130140D0E0EE24E394F12CC7010C2E01C0880FFB
S11301500A94EAF7912F982381E009F480E00E9441
S11301607600219788F7DF91CF911F91FF90EF9050
S113017008950F931F93CF93DF93EC018C01060F27
S1130180111DC017D10721F089910E949300F9CF66
S1130190DF91CF911F910F9108950E9453000E9407
S11301A0850066E080E091E00E94B900FFCFF894FA
S10501B0FFCF7B
S10901B248616C6C6F0053
S9030000FC
