:100000000C9434000C943E000C943E000C943E0082
:100010000C943E000C943E000C943E000C943E0068
:100020000C943E000C943E000C943E000C943E0058
:100030000C943E000C943E000C943E000C943E0048
:100040000C943E000C943E000C943E000C943E0038
:100050000C943E000C943E000C943E000C943E0028
:100060000C943E000C943E0011241FBECFEFD8E04C
:10007000DEBFCDBF0E9463000C9472000C940000A0
:100080000097D9F020E030E0589A4FEF59E668E148
:10009000415050406040E1F700C0000058984FEFD9
:1000A00059E668E1415050406040E1F700C000006F
:1000B0002F5F3F4F8217930739F70895509A8BB1FE
:1000C00086608BB908950E945E004A9904C080E062
:1000D00090E00E944000499902C0499BFECF80E019
:0800E00090E00895F894FFCFB1
:00000001FF
