S00F0000756562756E67322E737265635D
S11300000C9434000C9446000C9446000C94460066
S11300100C9446000C9446000C9446000C94460044
S11300200C9446000C9446000C9446000C94460034
S11300300C9446000C9446000C9446000C94460024
S11300400C9446000C9446000C9446000C94460014
S11300500C9446000C9446000C9446000C94460004
S11300600C9446000C94460011241FBECFEFD8E038
S1130070DEBFCDBF21E0A0E0B1E001C01D92A830F9
S1130080B207E1F70E9497000C9485020C940000DB
S1130090509A8BB186608BB908951092000110922A
S11300A001011092020110920301109204011092B6
S11300B005011092060110920701F89414BC16BCB5
S11300C081E080936E0085E085BD78940895AF92B9
S11300D0BF92CF92DF92EF92FF920F931F938FB74D
S11300E0F894A6B4209100013091010140910201DD
S11300F05091030160910401709105018091060102
S11301009091070108E00E944202B12CC12CD12C2D
S1130110E12CF12C00E010E00E945B021F910F9192
S1130120FF90EF90DF90CF90BF90AF900895CF9362
S1130130DF93CDB7DEB7AA970FB6F894DEBF0FBE34
S1130140CDBF0E9448000E944D0019861A861B8666
S11301501C861D861E861F86188A08E209831A8259
S11301601B821C821D821E821F8218861AE1198F2F
S113017026E02A8F1B8E1C8E1D8E1E8E1F8E18A2AB
S11301803AE139A346E04AA31BA21CA21DA21EA267
S11301901FA218A601E055245394812C1FEF198B3C
S11301A02FEF2A8B3FEF3B8B4FEF4C8B5FEF5D8B39
S11301B06FEF6E8B7FEF7F8B8FEF888F612C712CAD
S11301C009A709B10AA70E946700152DA0E00E94A3
S11301D0790219F001FB552450F809B10E94670017
S11301E0E9A5EAA7A0E00E94790221F002FB00271A
S11301F000F909A7111105C0552019F00FEF601A75
S1130200700A1AA51123A9F029A5211112C00E9470
S113021067002E5E35484F4F5F4F6F4F7F4F8F4FB4
S11302209F4F298B3A8B4B8B5C8B6D8B7E8B8F8B8B
S1130230988F39A5311121C10E946700A22EB32ED7
S1130240C42ED52EE62EF72E082F192F29893A8988
S11302504B895C896D897E898F89988D0E94700293
S113026008F07CC0589819861A861B861C861D8641
S11302701E861F86188A48E249831A821B821C82C2
S11302801D821E821F8218865AE1598F66E06A8F8A
S11302901B8E1C8E1D8E1E8E1F8E18A27AE179A3D2
S11302A086E08AA31BA21CA21DA21EA21FA218A63E
S11302B088248394EFEFE98B0FEF0A8B1FEF1B8BDE
S11302C02FEF2C8B3FEF3D8B4FEF4E8B5FEF5F8B10
S11302D06FEF688F612C712C41C081103EC0298161
S11302E03A814B815C816D817E818F819885A0E00C
S11302F00E94790209F0B6C0C301A0E0B0E0880F03
S1130300991FAA1FBB1F8C019D0140E050E0BA0158
S113031089831A832B833C834D835E836F83788721
S113032019861A861B861C861D861E861F86188AB9
S113033014E8198F2EE12A8F1B8E1C8E1D8E1E8EA3
S11303401F8E18A234E839A34EE14AA31BA21CA2B3
S11303501DA21EA21FA218A601C0812C0E94670024
S1130360222E332E442E952E6AA7B72FF82FE92F6D
S113037029813A814B815C816D817E818F81988551
S1130380A0E00E94790209F41CCF222D332D442DC4
S1130390592D6AA57B2F8F2F9E2FA984BA84CB84D5
S11303A0DC84ED84FE840F8518890E94700209F0B4
S11303B008F407CF2981217030E040E050E060E08C
S11303C070E080E090E0A0E00E947902E1F0222D4C
S11303D0332D442D592D6AA57B2F8F2F9E2FA98C49
S11303E0BA8CCB8CDC8CED8CFE8C0F8D18A10E940A
S11303F05B0229873A874B875C876D877E878F8767
S1130400988B58981BC0222D332D442D592D6AA545
S11304107B2F8F2F9E2FA9A0BAA0CBA0DCA0EDA08C
S1130420FEA00FA118A50E945B0229873A874B877B
S11304305C876D877E878F87988B589A29813A814C
S11304404B815C816D817E818F819885AFEF0E94A5
S1130450640229833A834B835C836D837E838F8319
S11304609887AFCE0E946700222E332E442E952EFD
S11304706AA7B72FF82FE92F88CF0AA5002309F41C
S11304802CCF6CCF0F93083090F0982F872F762FB6
S1130490652F542F432F322F22270850F4CF220FD9
S11304A0331F441F551F661F771F881F991F0A9506
S11304B0B2F70F9108952A0D3B1D4C1D5D1D6E1D55
S11304C07F1D801F911F08950024A7FD00942A0F0B
S11304D0301D401D501D601D701D801D901D089510
S11304E02A153B054C055D056E057F0580079107C0
S11304F008950024A7FD00942A17300540055005EF
S111050060057005800590050895F894FFCFFE
S9030000FC
